:020000040800F2
:100000000000012069080008F1070008F707000850
:10001000FD070008030800080908000800000000A8
:100020000000000000000000000000000F080008B1
:100030001D080008000000002B080008390800080F
:10004000B9080008B9080008B9080008B90800088C
:10005000B9080008B9080008B9080008B90800087C
:10006000B9080008B9080008B9080008B90800086C
:10007000B9080008B9080008B9080008B90800085C
:10008000B9080008B9080008B90800080000000015
:10009000000000000000000000000000B908000897
:1000A000B9080008B9080008B9080008B90800082C
:1000B000B9080008B9080008B9080008B90800081C
:1000C000B9080008B9080008B9080008B90800080C
:1000D000B9080008B9080008B908000800000000C5
:1000E000B9080008B9080008B908000800000000B5
:1000F000000000000000000000000000B908000837
:1001000000000000B9080008B9080008B908000894
:1001100000000000000000000000000000000000DF
:10012000B9080008B9080008B9080008B9080008AB
:10013000B9080008000000000000000000000000F6
:10014000000000000000000000000000B9080008E6
:10015000B9080008B9080008B9080008B90800087B
:10016000B9080008B90800080000000000000000FD
:10017000000000000000000000000000000000007F
:1001800000000000B90800080000000000000000A6
:04019000B9080008A2
:1001940010B5054C237833B9044B13B10448AFF3BD
:1001A40000800123237010BD240000200000000003
:1001B4004C21000808B5034B1BB103490348AFF3B6
:1001C400008008BD00000000280000204C21000829
:1001D40053B94AB9002908BF00281CBF4FF0FF31AA
:1001E4004FF0FF3000F070B9ADF1080C6DE904CEAA
:1001F40000F006F8DDF804E0DDE9022304B07047FE
:100204002DE9F047089E0D4604460F46002B4AD1BF
:100214008A42944665D9B2FA82F343B102FA03FCE6
:10022400C3F120029F4020FA02F217439C404FEA98
:100234001C4E1FFA8CF5B7FBFEF1220C0EFB117756
:1002440042EA074201FB05F090420AD91CEB020284
:1002540001F1FF3780F01C81904240F2198102398C
:100264006244121AA4B2B2FBFEF00EFB102244EA5E
:10027400024400FB05F5A5420AD91CEB040400F175
:10028400FF3280F00781A54240F2048164440238C1
:1002940040EA0140641B00211EB1DC400023C6E992
:1002A4000043BDE8F0878B4208D9002E00F0ED80B2
:1002B4000021C6E900050846BDE8F087B3FA83F1DA
:1002C400002949D1AB4202D3824200F2F880841A59
:1002D40065EB030201201746002EE2D0C6E9004771
:1002E400DFE702B9FFDEB2FA82F3002B40F0908020
:1002F4008A1A4FEA1C471FFA8CFE0121B2FBF7F55C
:1003040007FB1520220C42EA00420EFB05F0904246
:1003140008D91CEB020205F1FF3802D2904200F228
:10032400CB804546121AA4B2B2FBF7F007FB1022A9
:1003340044EA02440EFB00FEA64508D91CEB040463
:1003440000F1FF3202D2A64500F2BB801046A4EBB6
:100354000E0440EA05409FE7C1F120078B4022FAD2
:1003640007FC4CEA030C05FA01F420FA07F3FD40FC
:100374004FEA1C492343B5FBF9F81FFA8CFE09FB2D
:1003840018551C0C44EA054408FB0EF5A54202FA74
:1003940001F200FA01F00BD91CEB040408F1FF3A56
:1003A40080F08880A54240F28580A8F10208644468
:1003B400641B9DB2B4FBF9F309FB134445EA0444FE
:1003C40003FB0EFEA64508D91CEB040403F1FF351C
:1003D4006CD2A6456AD9023B644443EA0843A3FBB2
:1003E4000295A4EB0E04AC42C846AE4656D353D095
:1003F40056B1B0EB080264EB0E0404FA07F7CA40E6
:10040400CC401743C6E9007418460021BDE8F087C4
:10041400C3F1200102FA03FC20FA01F225FA01F1EA
:100424009D402A434FEA1C471FFA8CFEB1FBF7F0AC
:1004340007FB1015110C41EA054100FB0EF58D4236
:1004440004FA03F408D91CEB010100F1FF382FD2A0
:100454008D422DD902386144491B92B2B1FBF7F5A4
:1004640007FB151142EA014205FB0EF1914208D93E
:100474001CEB020205F1FF3816D2914214D9023D59
:100484006244521A45EA004138E73146304608E7EB
:100494003946E6E61046FBE64845A9D2B9EB020820
:1004A40065EB0C0E013BA3E74546EAE72B4694E7D0
:1004B4004046D1E7D0467BE7023D624432E7084636
:1004C4000AE76444023842E7704700BF80B500AFD2
:1004D40000F050FA00F010F800F0F8F800F06CF8B2
:1004E400034800F0E9F903461A46024B1A80FEE776
:1004F400742100080000002080B594B000AF07F11B
:10050400200330220021184601F0F2FD07F10C030C
:1005140000221A605A609A60DA601A610023BB6094
:10052400234B1B6C224A43F080531364204B1B6CF7
:1005340003F08053BB60BB6800237B601D4B1B68CA
:1005440023F440431B4A43F400431360194B1B68D4
:1005540003F440437B607B6802233B620123FB621C
:1005640010233B630023BB6307F12003184600F00C
:10057400DDFC0346002B01D000F0C2F80F23FB6022
:1005840000233B6100237B610023BB610023FB61EB
:1005940007F10C030021184600F040FF0346002B2E
:1005A40001D000F0ADF800BF5037BD4680BD00BF9C
:1005B400003802400070004080B58AB000AF07F1F7
:1005C400180300221A605A609A60DA6007F1100377
:1005D40000221A605A603B4600221A605A609A60F0
:1005E400DA60384B384A1A60364B00225A60354B71
:1005F40000229A60334B4FF6FF72DA60314B0022CF
:100604001A61304B00225A612E4B00229A612D4808
:1006140001F0B0F80346002B01D000F071F84FF45C
:100624008053BB6107F118031946264801F0E6F927
:100634000346002B01D000F063F8224801F0E9F8EA
:100644000346002B01D000F05BF800233B6100233C
:100654007B6107F1100319461A4801F0DBFC0346DD
:10066400002B01D000F04CF800233B6001237B6099
:100674000023BB600023FB603B460022194611485F
:1006840001F020F90346002B01D000F039F83B4675
:10069400042219460B4801F015F90346002B01D03A
:1006A40000F02EF83B4608221946064801F00AF9E4
:1006B4000346002B01D000F023F800BF2837BD46C5
:1006C40080BD00BF400000200000014080B483B022
:1006D40000AF00237B60094B1B6B084A43F0010306
:1006E4001363064B1B6B03F001037B607B6800BF45
:1006F4000C37BD465DF8047B704700BF00380240EC
:1007040080B400AF72B600BFFEE7000080B483B0CF
:1007140000AF00237B60104B5B6C0F4A43F48043B3
:1007240053640D4B5B6C03F480437B607B68002354
:100734003B60094B1B6C084A43F080531364064B1F
:100744001B6C03F080533B603B6800BF0C37BD4615
:100754005DF8047B704700BF0038024080B58AB062
:1007640000AF786007F1140300221A605A609A609F
:10077400DA601A617B681B68194A93422CD1002302
:100784003B61184B5B6C174A43F001035364154BF0
:100794005B6C03F001033B613B690023FB60114B7D
:1007A4001B6B104A43F0010313630E4B1B6B03F0E6
:1007B4000103FB60FB684FF4E0637B610223BB61D0
:1007C4000023FB6100233B6201237B6207F11403D6
:1007D4001946054800F026FA00BF2837BD4680BDFB
:1007E40000000140003802400000024080B400AF25
:1007F400FEE780B400AFFEE780B400AFFEE780B44C
:1008040000AFFEE780B400AFFEE780B400AF00BFE6
:10081400BD465DF8047B704780B400AF00BFBD46A1
:100824005DF8047B704780B400AF00BFBD465DF83F
:10083400047B704780B500AF00F0EEF800BF80BDC8
:1008440080B400AF064BD3F88830054A43F47003F4
:10085400C2F8883000BFBD465DF8047B704700BF16
:1008640000ED00E0DFF834D0FFF7EAFF0C480D4953
:100874000D4A002302E0D458C4500433C4188C42F7
:10088400F9D30A4A0A4C002301E013600432A2425D
:10089400FBD301F035FCFFF719FE7047000001207F
:1008A40000000020240000208C21000824000020E7
:1008B4008C000020FEE7000080B586B000AF7860B1
:1008C4000123FB827B68002B45D07B681B68254A8B
:1008D40093420ED100233B61234B1B6B224A43F00E
:1008E40001031363204B1B6B03F001033B613B6962
:1008F40026E07B681B681D4A93420ED10023FB60EF
:10090400194B1B6B184A43F002031363164B1B6B02
:1009140003F00203FB60FB6812E07B681B68144A67
:1009240093420DD10023BB600F4B1B6B0E4A43F067
:10093400020313630C4B1B6B03F00203BB60BB6825
:100944007B681A687B685B681946104600F06AF990
:100954000123FB8201E00123FB82FB8A184618373E
:10096400BD4680BD00000240003802400004024041
:100974000008024080B500AF0E4B1B680D4A43F4DB
:10098400007313600B4B1B680A4A43F480631360C3
:10099400084B1B68074A43F480731360032000F07C
:1009A4000DF90F2000F008F8FFF7B0FE00231846F9
:1009B40080BD00BF003C024080B582B000AF7860CB
:1009C400124B1A68124B1B7819464FF47A73B3FB17
:1009D400F1F3B2FBF3F3184600F017F90346002BCA
:1009E40001D001230EE07B680F2B0AD8002279681E
:1009F4004FF0FF3000F0EDF8064A7B6813600023E7
:100A040000E0012318460837BD4680BD04000020DD
:100A1400200000201C00002080B400AF064B1B788F
:100A24001A46064B1B681344044A136000BFBD46B4
:100A34005DF8047B704700BF200000208800002080
:100A440080B400AF034B1B681846BD465DF8047BB9
:100A5400704700BF8800002080B485B000AF786084
:100A64007B6803F00703FB600C4BDB68BB60BA6870
:100A74004FF6FF031340BB60FB681A02BB681343C5
:100A840043F0BF6343F40033BB60044ABB68D360E4
:100A940000BF1437BD465DF8047B704700ED00E0ED
:100AA40080B400AF044BDB681B0A03F0070318464D
:100AB400BD465DF8047B704700ED00E080B483B070
:100AC40000AF03463960FB7197F90730002B0ADB4E
:100AD4003B68DAB20C4997F907301201D2B20B44E1
:100AE40083F800230AE03B68DAB20849FB7903F093
:100AF4000F03043B1201D2B20B441A7600BF0C3729
:100B0400BD465DF8047B704700E100E000ED00E0C5
:100B140080B489B000AFF860B9607A60FB6803F014
:100B24000703FB61FB69C3F10703042B28BF0423FC
:100B3400BB61FB690433062B02D9FB69033B00E06C
:100B440000237B614FF0FF32BB6902FA03F3DA43FF
:100B5400BB681A407B699A404FF0FF317B6901FA08
:100B640003F3D9437B680B40134318462437BD462F
:100B74005DF8047B7047000080B582B000AF7860F8
:100B84007B68013BB3F1807F01D301230FE00A4A64
:100B94007B68013B53600F214FF0FF30FFF78EFF5E
:100BA400054B00229A60044B07221A600023184662
:100BB4000837BD4680BD00BF10E000E080B582B0BC
:100BC40000AF78607868FFF747FF00BF0837BD467D
:100BD40080BD80B586B000AF0346B9607A60FB7310
:100BE40000237B61FFF75CFF78617A68B9687869F4
:100BF400FFF78EFF024697F90F3011461846FFF7AC
:100C04005DFF00BF1837BD4680BD80B582B000AF20
:100C140078607868FFF7B0FF034618460837BD468A
:100C240080BD000080B489B000AF786039600023D3
:100C34007B6100233B610023BB610023FB6159E11D
:100C44000122FB6902FA03F37B613B681B687A6942
:100C540013403B613A697B699A4240F048813B68A2
:100C64005B6803F00303012B05D03B685B6803F06A
:100C74000303022B30D17B689B68BB61FB695B007B
:100C8400032202FA03F3DB43BA691340BB613B68F6
:100C9400DA68FB695B0002FA03F3BA691343BB61C8
:100CA4007B68BA699A607B685B68BB610122FB69F7
:100CB40002FA03F3DB43BA691340BB613B685B6828
:100CC4001B0903F00102FB6902FA03F3BA69134337
:100CD400BB617B68BA695A603B685B6803F00303D5
:100CE400032B17D07B68DB68BB61FB695B000322C5
:100CF40002FA03F3DB43BA691340BB613B689A68A9
:100D0400FB695B0002FA03F3BA691343BB617B68B6
:100D1400BA69DA603B685B6803F00303022B23D1F2
:100D2400FB69DA087B68083253F82230BB61FB693F
:100D340003F007039B000F2202FA03F3DB43BA69B3
:100D44001340BB613B681A69FB6903F007039B000E
:100D540002FA03F3BA691343BB61FB69DA087B68DF
:100D64000832B96943F822107B681B68BB61FB69D0
:100D74005B00032202FA03F3DB43BA691340BB614D
:100D84003B685B6803F00302FB695B0002FA03F350
:100D9400BA691343BB617B68BA691A603B685B68D4
:100DA40003F44033002B00F0A2800023FB60574B78
:100DB4005B6C564A43F480435364544B5B6C03F4BA
:100DC4008043FB60FB68524AFB699B08023352F87C
:100DD4002330BB61FB6903F003039B000F2202FA7B
:100DE40003F3DB43BA691340BB617B68494A93420E
:100DF40019D07B68484A934213D07B68474A934290
:100E04000DD07B68464A934207D07B68454A93429B
:100E140001D1042308E0072306E0032304E00223AE
:100E240002E0012300E00023FA6902F003029200C9
:100E34009340BA691343BB613549FB699B0802338C
:100E4400BA6941F82320384B9B68BB613B69DB439B
:100E5400BA691340BB613B685B6803F48013002BE1
:100E640003D0BA693B691343BB612F4ABB699360E2
:100E74002D4BDB68BB613B69DB43BA691340BB6143
:100E84003B685B6803F40013002B03D0BA693B6929
:100E94001343BB61244ABB69D360234B5B68BB61CA
:100EA4003B69DB43BA691340BB613B685B6803F48D
:100EB4000033002B03D0BA693B691343BB611A4A60
:100EC400BB695360184B1B68BB613B69DB43BA6960
:100ED4001340BB613B685B6803F48033002B03D091
:100EE400BA693B691343BB610F4ABB691360FB6971
:100EF4000133FB61FB690F2B7FF6A2AE00BF00BF7D
:100F04002437BD465DF8047B704700BF00380240BB
:100F14000038014000000240000402400008024082
:100F2400000C024000100240003C014080B586B035
:100F340000AF78607B68002B01D1012367E27B68F6
:100F44001B6803F00103002B75D0884B9B6803F0EA
:100F54000C03042B0CD0854B9B6803F00C03082B6B
:100F640012D1824B5B6803F48003B3F5800F0BD17D
:100F74007E4B1B6803F40033002B5BD07B685B68FB
:100F8400002B57D1012342E27B685B68B3F5803FB5
:100F940006D1764B1B68754A43F4803313601DE019
:100FA4007B685B68B3F5A02F0CD1704B1B686F4A4C
:100FB40043F4802313606D4B1B686C4A43F4803305
:100FC40013600BE0694B1B68684A23F48033136099
:100FD400664B1B68654A23F4802313607B685B6857
:100FE400002B13D0FFF72CFD386108E0FFF728FD34
:100FF40002463B69D31A642B01D9032307E25B4BF6
:101004001B6803F40033002BF0D014E0FFF718FD45
:10101400386108E0FFF714FD02463B69D31A642BDC
:1010240001D90323F3E1514B1B6803F40033002B74
:10103400F0D100E000BF7B681B6803F00203002BC3
:1010440063D04A4B9B6803F00C03002B0BD0474B37
:101054009B6803F00C03082B1CD1444B5B6803F41E
:101064008003002B16D1414B1B6803F00203002BB5
:1010740005D07B68DB68012B01D00123C7E13B4B22
:101084001B6823F0F8027B681B69DB0037491343B4
:101094000B603AE07B68DB68002B20D0344B0122E4
:1010A4001A60FFF7CDFC386108E0FFF7C9FC02467F
:1010B4003B69D31A022B01D90323A8E12B4B1B68EC
:1010C40003F00203002BF0D0284B1B6823F0F80236
:1010D4007B681B69DB00254913430B6015E0244B37
:1010E40000221A60FFF7ACFC386108E0FFF7A8FCA7
:1010F40002463B69D31A022B01D9032387E11B4B18
:101104001B6803F00203002BF0D17B681B6803F01B
:101114000803002B36D07B685B69002B16D0154B77
:1011240001221A60FFF78CFC386108E0FFF788FCA5
:1011340002463B69D31A022B01D9032367E10B4B07
:101144005B6F03F00203002BF0D01BE0094B00227D
:101154001A60FFF775FC38610EE0FFF771FC024678
:101164003B69D31A022B07D9032350E1003802400C
:1011740000004742800E4742884B5B6F03F0020336
:10118400002BEAD17B681B6803F00403002B00F0FA
:1011940097800023FB75814B1B6C03F08053002B5D
:1011A4000FD10023BB607D4B1B6C7C4A43F0805302
:1011B40013647A4B1B6C03F08053BB60BB68012340
:1011C400FB75774B1B6803F48073002B18D1744BA9
:1011D4001B68734A43F480731360FFF731FC386172
:1011E40008E0FFF72DFC02463B69D31A022B01D914
:1011F40003230CE16A4B1B6803F48073002BF0D0CB
:101204007B689B68012B06D1644B1B6F634A43F0D8
:10121400010313671CE07B689B68052B0CD15F4BB3
:101224001B6F5E4A43F0040313675C4B1B6F5B4AFE
:1012340043F0010313670BE0584B1B6F574A23F02D
:1012440001031367554B1B6F544A23F004031367C0
:101254007B689B68002B15D0FFF7F2FB38610AE02E
:10126400FFF7EEFB02463B69D31A41F28832934200
:1012740001D90323CBE0494B1B6F03F00203002B7E
:10128400EED014E0FFF7DCFB38610AE0FFF7D8FB8F
:1012940002463B69D31A41F28832934201D90323AF
:1012A400B5E03E4B1B6F03F00203002BEED1FB7D38
:1012B400012B05D1394B1B6C384A23F0805313643E
:1012C4007B689B69002B00F0A180344B9B6803F082
:1012D4000C03082B5CD07B689B69022B41D1314BFA
:1012E40000221A60FFF7ACFB386108E0FFF7A8FBA7
:1012F40002463B69D31A022B01D9032387E0274B0B
:101304001B6803F00073002BF0D17B68DA697B68FB
:101314001B6A1A437B685B6A9B011A437B689B6A5E
:101324005B08013B1B041A437B68DB6A1B061B49F1
:1013340013434B601B4B01221A60FFF781FB38619A
:1013440008E0FFF77DFB02463B69D31A022B01D963
:1013540003235CE0114B1B6803F00073002BF0D0F7
:1013640054E0104B00221A60FFF76AFB386108E072
:10137400FFF766FB02463B69D31A022B01D903230C
:1013840045E0064B1B6803F00073002BF0D13DE0F1
:101394007B689B69012B07D1012338E000380240A8
:1013A40000700040600047421B4B5B68FB607B6839
:1013B4009B69012B28D0FB6803F480027B68DB69FE
:1013C4009A4221D1FB6803F03F027B681B6A9A4270
:1013D4001AD1FA6847F6C07313407A68526A9201C8
:1013E400934211D1FB6803F440327B689B6A5B082B
:1013F400013B1B049A4207D1FB6803F070627B68CF
:10140400DB6A1B069A4201D0012300E00023184640
:101414001837BD4680BD00BF0038024080B584B097
:1014240000AF786039607B68002B01D10123CCE0E8
:10143400684B1B6803F007033A689A420CD9654B62
:101444003A68D2B21A70634B1B6803F007033A6818
:101454009A4201D00123B8E07B681B6803F00203C1
:10146400002B20D07B681B6803F00403002B05D0FD
:10147400594B9B68584A43F4E05393607B681B685C
:1014840003F00803002B05D0534B9B68524A43F4E6
:1014940060439360504B9B6823F0F0027B689B6829
:1014A4004D4913438B607B681B6803F00103002BD9
:1014B40044D07B685B68012B07D1474B1B6803F45E
:1014C4000033002B19D101237FE07B685B68022B7A
:1014D40003D07B685B68032B07D13F4B1B6803F089
:1014E4000073002B09D101236FE03B4B1B6803F011
:1014F4000203002B01D1012367E0374B9B6823F0E3
:1015040003027B685B68344913438B60FFF798FAE6
:10151400F8600AE0FFF794FA0246FB68D31A41F236
:101524008832934201D903234FE02B4B9B6803F08D
:101534000C027B685B689B009A42EBD1254B1B68CD
:1015440003F007033A689A420CD2224B3A68D2B2AB
:101554001A70204B1B6803F007033A689A4201D0C3
:10156400012332E07B681B6803F00403002B08D0DE
:10157400194B9B6823F4E0527B68DB6816491343DC
:101584008B607B681B6803F00803002B09D0124BA7
:101594009B6823F460427B681B69DB000E4913439C
:1015A4008B6000F021F802460B4B9B681B0903F08B
:1015B4000F030A49CB5C22FA03F3094A1360094B6F
:1015C4001B681846FFF7F8F9002318461037BD4684
:1015D40080BD00BF003C0240003802406421000886
:1015E400040000201C0000202DE9B04F90B000AF93
:1015F40000237B630023FB6300233B630023BB6363
:10160400594B9B6803F00C03082B0DD0082B00F2F8
:10161400A180002B02D0042B03D09BE0534BBB636F
:101624009BE0534BBB6398E04F4B5B6803F03F0375
:101634007B634D4B5B6803F48003002B28D04A4B3B
:101644005B689B0900223B627A623B6AC3F3080031
:101654000021474B03FB01F2002300FB03F3134477
:10166400434AA0FB0212FA620A46BA62FA6A1344B7
:10167400FB627B6B0022BB61FA61D7E90623D7E9E1
:101684000A01FEF7A5FD02460B461346FB6353E031
:10169400354B5B689B0900223B617A613B69C3F36C
:1016A400080A4FF0000B52465B464FF000004FF023
:1016B4000001590141EAD261500102460B46B2EBE6
:1016C4000A0863EB0B094FF000024FF000034FEAE6
:1016D400891343EA98634FEA8812B2EB080463EB78
:1016E40009054FF000024FF00003EB0043EA547386
:1016F400E20014461D4614EB0A033B6045EB0B0362
:101704007B604FF000024FF00003D7E90045294603
:101714008B02214643EA915321468A021046194618
:101724007B6B0022BB60FA60D7E90223FEF750FD11
:1017340002460B461346FB630B4B5B681B0C03F022
:10174400030301335B003B63FA6B3B6BB2FBF3F3C4
:10175400BB6302E0054BBB6300BFBB6B184640375D
:10176400BD46BDE8B08F00BF003802400024F4003D
:1017740040787D0180B582B000AF78607B68002B33
:1017840001D1012341E07B6893F83D30DBB2002BAB
:1017940006D17B68002283F83C207868FEF7DEFFE0
:1017A4007B68022283F83D207B681A687B680433D7
:1017B4001946104600F0EAF97B68012283F84620B6
:1017C4007B68012283F83E207B68012283F83F2056
:1017D4007B68012283F840207B68012283F8412042
:1017E4007B68012283F842207B68012283F843202E
:1017F4007B68012283F844207B68012283F845201A
:101804007B68012283F83D20002318460837BD4633
:1018140080BD80B582B000AF78607B68002B01D1B9
:10182400012341E07B6893F83D30DBB2002B06D105
:101834007B68002283F83C20786800F039F87B68E4
:10184400022283F83D207B681A687B6804331946BA
:10185400104600F09BF97B68012283F846207B68E0
:10186400012283F83E207B68012283F83F207B68B5
:10187400012283F840207B68012283F841207B68A1
:10188400012283F842207B68012283F843207B688D
:10189400012283F844207B68012283F845207B6879
:1018A400012283F83D20002318460837BD4680BD39
:1018B40080B483B000AF786000BF0C37BD465DF8DC
:1018C400047B704780B586B000AFF860B9607A6079
:1018D4000023FB75FB6893F83C30012B01D10223F4
:1018E40088E0FB68012283F83C207B68002B1BD135
:1018F400FB681868BB681968BB685A68BB68DB6812
:1019040000F0D0F9FB681B689A69FB681B6822F039
:101914000C029A61FB681B689969BB689A68FB684A
:101924001B680A439A6160E07B68042B1CD1FB6846
:101934001868BB681968BB685A68BB68DB6800F044
:1019440048FAFB681B689A69FB681B6822F44062CA
:101954009A61FB681B689969BB689B681A02FB68FB
:101964001B680A439A6140E07B68082B1BD1FB6823
:101974001868BB681968BB685A68BB68DB6800F004
:1019840095FAFB681B68DA69FB681B6822F00C0295
:10199400DA61FB681B68D969BB689A68FB681B68D5
:1019A4000A43DA6121E07B680C2B1CD1FB681868C0
:1019B400BB681968BB685A68BB68DB6800F0B2FA98
:1019C400FB681B68DA69FB681B6822F44062DA6111
:1019D400FB681B68D969BB689B681A02FB681B68B3
:1019E4000A43DA6101E00123FB75FB68002283F8F6
:1019F4003C20FB7D18461837BD4680BD80B584B0B9
:101A040000AF786039600023FB737B6893F83C3047
:101A1400012B01D10223B4E07B68012283F83C202E
:101A24007B68022283F83D207B681B689B68BB604F
:101A3400BB6823F07703BB60BB6823F47F43BB60C0
:101A44007B681B68BA689A603B681B68B3F5005FE3
:101A54003ED0B3F5005F00F28780B3F5805F00F0FD
:101A64008680B3F5805F7FD8702B1AD0702B7BD81B
:101A7400602B50D0602B77D8502B3CD0502B73D890
:101A8400402B58D0402B6FD8302B64D0302B6BD8E0
:101A9400202B60D0202B67D8002B5CD0102B5AD081
:101AA40062E07B6818683B6899683B685A683B68E1
:101AB400DB6800F08FFA7B681B689B68BB60BB68BF
:101AC40043F07703BB607B681B68BA689A604FE099
:101AD4007B6818683B6899683B685A683B68DB68B0
:101AE40000F078FA7B681B689A687B681B6842F48C
:101AF40080429A603CE07B6818683B6859683B68A0
:101B0400DB681A4600F036F97B681B6850211846DA
:101B140000F045FA2CE07B6818683B6859683B681C
:101B2400DB681A4600F092F97B681B68602118464E
:101B340000F035FA1CE07B6818683B6859683B681C
:101B4400DB681A4600F016F97B681B6840211846CA
:101B540000F025FA0CE07B681A683B681B6819469C
:101B6400104600F01CFA03E00123FB7300E000BF01
:101B74007B68012283F83D207B68002283F83C20A7
:101B8400FB7B18461037BD4680BD000080B485B08D
:101B940000AF786039607B681B68FB607B683A4AF9
:101BA40093420FD07B68B3F1804F0BD07B68374AE8
:101BB400934207D07B68364A934203D07B68354A08
:101BC400934208D1FB6823F07003FB603B685B68B9
:101BD400FA681343FB607B682B4A93421BD07B68F3
:101BE400B3F1804F17D07B68284A934213D07B68A7
:101BF400274A93420FD07B68264A93420BD07B68D6
:101C0400254A934207D07B68244A934203D07B68D9
:101C1400234A934208D1FB6823F44073FB603B687A
:101C2400DB68FA681343FB60FB6823F080023B68BF
:101C34005B691343FB607B68FA681A603B689A68C7
:101C44007B68DA623B681A687B689A627B680E4A32
:101C5400934203D13B681A697B681A637B6801224B
:101C64005A617B681B6903F00103012B05D17B6872
:101C74001B6923F001027B681A6100BF1437BD465B
:101C84005DF8047B704700BF000001400004004081
:101C940000080040000C00400040014000440140A6
:101CA4000048014080B487B000AFF860B9607A6042
:101CB4003B60FB681B6A3B61FB681B6A23F0010203
:101CC400FB681A62FB689B697B61FB68244A934248
:101CD40013D0FB68B3F1804F0FD0FB68214A9342C5
:101CE4000BD0FB68204A934207D0FB681F4A9342FB
:101CF40003D0FB681E4A934201D1012300E0002374
:101D0400002B08D07B6923F003037B617A697B682D
:101D140013437B6103E07B6943F001037B617B69CF
:101D240023F0F0037B613B681B01DBB27A69134348
:101D34007B613B6923F00A033B61BB6803F00A0340
:101D44003A6913433B61FB687A699A61FB683A69B3
:101D54001A6200BF1C37BD465DF8047B704700BFA4
:101D6400000001400004004000080040000C004056
:101D74000040014080B487B000AFF860B9607A6079
:101D8400FB681B6A7B61FB681B6A23F00102FB682A
:101D94001A62FB689B693B613B6923F0F0033B617A
:101DA4007B681B013A6913433B617B6923F00A0397
:101DB4007B617A69BB6813437B61FB683A699A610A
:101DC400FB687A691A6200BF1C37BD465DF8047B64
:101DD400704780B487B000AFF860B9607A603B6048
:101DE400FB681B6A7B61FB681B6A23F01002FB68BB
:101DF4001A62FB689B693B613B6923F440733B6156
:101E04007B681B023A6913433B613B6923F47043CB
:101E14003B613B681B039BB23A6913433B617B699B
:101E240023F0A0037B61BB681B0103F0A0037A6964
:101E340013437B61FB683A699A61FB687A691A62A9
:101E440000BF1C37BD465DF8047B704780B487B083
:101E540000AFF860B9607A60FB681B6A7B61FB685D
:101E64001B6A23F01002FB681A62FB689B693B61E2
:101E74003B6923F470433B617B681B033A6913435A
:101E84003B617B6923F0A0037B61BB681B017A691A
:101E940013437B61FB683A699A61FB687A691A6249
:101EA40000BF1C37BD465DF8047B704780B487B023
:101EB40000AFF860B9607A603B60FB681B6A7B61C5
:101EC400FB681B6A23F48072FB681A62FB68DB6997
:101ED4003B613B6923F003033B613A697B6813432D
:101EE4003B613B6923F0F0033B613B681B01DBB2C0
:101EF4003A6913433B617B6923F420637B61BB68CC
:101F04001B0203F420637A6913437B61FB683A691B
:101F1400DA61FB687A691A6200BF1C37BD465DF856
:101F2400047B704780B487B000AFF860B9607A6012
:101F34003B60FB681B6A7B61FB681B6A23F480526D
:101F4400FB681A62FB68DB693B613B6923F44073FD
:101F54003B617B681B023A6913433B613B6923F491
:101F640070433B613B681B039BB23A6913433B617B
:101F74007B6923F420437B61BB681B0303F4204388
:101F84007A6913437B61FB683A69DA61FB687A69B1
:101F94001A6200BF1C37BD465DF8047B704780B4ED
:101FA40085B000AF786039607B689B68FB60FB6834
:101FB40023F07003FB603A68FB68134343F00703A4
:101FC400FB607B68FA689A6000BF1437BD465DF811
:101FD400047B704780B487B000AFF860B9607A6062
:101FE4003B60FB689B687B617B6923F47F437B6177
:101FF4003B681A027B681A43BB6813437A6913432C
:102004007B61FB687A699A6000BF1C37BD465DF846
:10201400047B704780B485B000AF786039607B681A
:1020240093F83C30012B01D1022350E07B6801225C
:1020340083F83C207B68022283F83D207B681B6880
:102044005B68FB607B681B689B68BB60FB6823F074
:102054007003FB603B681B68FA681343FB607B6892
:102064001B68FA685A607B681B681C4A934218D044
:102074007B681B68B3F1804F13D07B681B68184AD8
:1020840093420ED07B681B68164A934209D07B6842
:102094001B68154A934204D07B681B68134A934219
:1020A4000CD1BB6823F08003BB603B685B68BA68F3
:1020B4001343BB607B681B68BA689A607B68012223
:1020C40083F83D207B68002283F83C2000231846D7
:1020D4001437BD465DF8047B704700BF0000014023
:1020E4000004004000080040000C00400040014093
:1020F40002440346934200D1704703F8011BF9E7F9
:1021040070B50D4D0D4C641BA4100026A64209D1D8
:102114000B4D0C4C00F018F8641BA4100026A642CA
:1021240005D170BD55F8043B98470136EEE755F8E4
:10213400043B98470136F2E7842100088421000813
:102144008421000888210008F8B500BFF8BC08BC49
:102154009E467047F8B500BFF8BC08BC9E46704761
:102164000000000000000000010203040607080943
:082174000004024008000020F5
:08217C0088E0FF7F0100000074
:04218400B901000895
:0421880095010008B5
:10218C00010000000024F400040000000100000025
:10219C000000000000000000000000001000000023
:0421AC00010000002E
:04000005080008697E
:00000001FF
